:10000000F01F0000150000100000000000000000BC
:1000100000207047F8B518482921490608620120D8
:10002000086000204861012088600F2008610020DE
:1000300008613F20C861FE20C8600420486000BFFE
:1000400000BF00BF00BFFFF7E3FF00900B4845680B
:1000500000260746002404E0A0003858A100705094
:10006000641C202CF8D300204560A84700BF00BFC7
:1000700000BF00BFF8BD0000A07F0000000400101A
:100080000000000000000000000000000000000070
:100090000000000000000000000000000000000060
:1000A0000000000000000000000000000000000050
:1000B0000000000000000000000000000000000040
:1002C000000300000000000000000000000000002B
:1002D0000003000000B900000003000000B90000A6
:1002E00000C00000000400000100010001007200D5
:1002F000190F4341525245524200000001000000D4
:1003000000000000000000000000000000000000ED
:1003100000000000000000000000000000000000DD
:1003200000000000000000000000000000000000CD
:1003300000000000000000000000000000000000BD
:1003400000000000000000000000000000000000AD
:10035000000000000000000000000000000000009D
:10036000000000000000000000000000000000008D
:10037000000000000000000000000000000000007D
:10038000000000000000000000000000000000006D
:10039000000000000000000000000000000000005D
:1003A000000000000000000000000000000000004D
:1003B000000000000000000000000000000000003D
:1003C000000000000000000000000000000000002D
:1003D000000000000000000000000000000000001D
:1003E000000000000000000000000000000000000D
:1003F00000000000000000000000000000000000FD
:10040000F01F000057060010000000000000000070
:1004100000000000000000000000000000000000DC
:1004200000000000000000000000000000000000CC
:100430000000000000000000C9050010038B001040
:100440007D120010550600105506001055060010CC
:100450005506001045070010E12200102119001078
:1004600055060010550600105506001055060010E0
:1004700055060010BD060010550600105506001068
:1004800055060010550600105506001055060010C0
:1004900055060010550600105506001055060010B0
:1004A00055060010550600105506001055060010A0
:1004B0005506001055060010550600105506001090
:1004C00003B40148019001BDE11F000003B40148DD
:1004D000019001BDC100000000F002F800F040F8FA
:1004E0000CA030C8083824182D18A246671EAB4649
:1004F00054465D46AC4201D100F032F87E460F3ED4
:100500000FCCB6460126334200D0FB1AA246AB46BA
:1005100033431847A0AF000010B00000103A02D3D8
:1005200078C878C1FAD8520701D330C830C101D594
:1005300004680C607047000000230024002500269A
:10054000103A01D378C1FBD8520700D330C100D58F
:100550000B6070471FB5C046C0461FBD10B510BD2B
:1005600009F046FB1146FFF7F5FF00F08AF809F0A5
:100570005EFB03B4FFF7F2FF03BC01F0B0FE000026
:1005800002B472B601780131017062B60139080017
:1005900002BC704702B472B601780139017062B6CC
:1005A000080002BC7047000062B6704772B6704720
:1005B0001C3880F309887047014802490160704780
:1005C00004ED00E000000010114B1968114A126898
:1005D000914216D0EFF3098020380860F0C04446FD
:1005E0004D4656465F46F0C01A6010681030F0C89D
:1005F000A046A946B246BB462038F0C8103080F36A
:100600000988054B00201870042040420047000074
:10061000D4050000D0050000B505000070B5054602
:100620000C46164602E00FCC0FC5103E102EFAD233
:10063000082E02D303CC03C5083E042E07D301CCF9
:1006400001C5361F03E021782970641C6D1C761EDD
:10065000F9D270BDFEE710B5FFF73EFF10BD10B533
:1006600008F08BF80F4B104A0021104808F0FFFAF1
:100670000F4B104A0021104808F0F9FA08F0A0F8D2
:1006800010BD10B500F0BAF9FFF71AFF01F048FAF3
:1006900000F039FC00F01FFE00F03CFCFFF7DFFF2C
:1006A000012010BD700700000964000057680010A9
:1006B000F80B00000A220100D91C001010B508F048
:1006C0002DF8F948407808F08CF9F8490F20C862F5
:1006D00008F029F810BDF8B50246A032937DF44C1D
:1006E0005D009E005C2300955F5C3B0009F002FB0F
:1006F00008070A050A07050A070A0C6B05E0D27A03
:10070000022A15D0002001F0B7F8EA498020C8621B
:100710003004E94A801C50612804801C55210906D8
:100720004861200420438861906101200860F8BD81
:100730004C6A9021415E481CE7D035460029E4D13F
:10074000009DE2E770B5DD4CC820055907F0E6FFD3
:1007500001205521090688622046A0300188891EA3
:100760000B0009F0C7FA070505232305050523003B
:100770002146803110228A5E002A10DD521E0A8234
:100780000088062803D10021022000F014FA204638
:1007900001F082FC29462046FFF79DFF09E0032176
:1007A000C172C148007808F01CF902E0002001F095
:1007B00063F807F0B8FF70BD70B5054604462035F4
:1007C00001F00BFDC0346079A881012070BDF8B53F
:1007D00006460F4601253446284600227F21A034D4
:1007E0003B0009F087FA0705090D110B13111500DD
:1007F000E2742175A0740EE02022F9E74022F7E7A9
:100800004D20E074A27406E04422F1E70225EFE7F0
:10081000002001F031F82946304601F001F8F8BD1A
:10082000F8B507460020085E0C46C00F01F024F81A
:1008300020883D464042E080A07AA03528803E4690
:10084000608880363082E08878642089F083E07A9E
:100850002872207BA8722020005D2873207D687399
:10086000607D2877A17DC520C1552079B074E07ED8
:10087000E873207EB08300F041FE407E687200F095
:100880003DFEC07D307601214020C153A07EFE2177
:10089000401C0840A875607E68752069B063002020
:1008A0006877864800F05AF92888801E030009F00E
:1008B00021FA0727053434052205340000F01EFE16
:1008C0002030C07900280BD02888082808D0768BE3
:1008D000607E31468019401E08F016FC7043687532
:1008E000E17D7648FFF773FF744801F021FB38463D
:1008F00001F073FC14E000217048FFF768FF08E086
:1009000002216E48FFF763FFE088800868770020C7
:1009100030763846FFF750FF02E0002000F0ACFFD1
:100920000120F8BD10B50146654808F0E3FB410A17
:100930005E4A0120403A50605C48002303620F2366
:10094000C3620161FF214161816103215160042182
:10095000016210BD70B50246584C0846A034130021
:1009600009F0C8F90C47332247474143074747136B
:100970000B47524800F0AAF83EE00D46A17FA9427D
:100980003AD0FFF7CFFFA57736E0CAB22921490652
:10099000486BFF231B0218404A4B00241C5F002CAD
:1009A00000DA1043486327E04448FFF739FF00F0BE
:1009B000A5FD414B40300021803B8A008458D2186D
:1009C0001462491C0829F8D316E03C4EC820815116
:1009D0000220E0720D46304601F05EFB29463046AB
:1009E000FFF779FE08E0012000E0002000F04AF85F
:1009F00002E0002000F040FF012070BDF8B50021AA
:100A0000084607F0FFFE284C00212070084607F03A
:100A1000F9FE6070294C0125402005532046042131
:100A20008030818321460222A0314A808A80403969
:100A30000D8205800F268E8386812746204601F091
:100A400068FD204600F08AF801F0A1FD01F01CFBD2
:100A50000121204600F0E4FECC2221463846FFF773
:100A6000DDFDA91E5520000681621049CE62114AA3
:100A70001549403A11620F498022CA6200220A6376
:100A80000562F8BD10B50C46002803D0084601F0F9
:100A90008CFC10BD00F032FD2030807A0028F8D0A8
:100AA000204601F068FC10BDA00400008000005248
:100AB000CDCDCDCDC003005500010055FC0B00008D
:100AC000005A62028C0500003343000070B50546F1
:100AD00000F014FD807F01F091FC00F00FFD20304C
:100AE000007A294601F0FBFC00F008FD808CFFF73E
:100AF00019FF284600F032F8002400F0FFFC2030F7
:100B0000407A002806D0102400F0F8FC2030407A0B
:100B100001F012FC0848102181630463074A12782F
:100B2000002A01D0016300E0046300F0E7FC808C40
:100B3000A035A87770BD0000C003005589050000EE
:100B400010B5012806D04E490846143001F0FEFBCE
:100B5000012010BD002000F08FFEF9E710B5FF2145
:100B60005322120604465160042010625162002391
:100B70009362D3621163434A5160434810625362E7
:100B80009162404A403251601062536291623D4A24
:100B9000803251601062536291623A4AC0325160B1
:100BA0001062536291620020FFF7CAFF0620A03452
:100BB000A071E07110BDF8B504460D46009100F03B
:100BC0009DFC3248EE0007787000761C7100761CA0
:100BD0007200761C73009C46761C73009E46761C41
:100BE0007300761C7500761C7600002F2BD0032C2A
:100BF00001D0022C26D15524009F2406002F37D087
:100C0000234F2763234F6763214F4037A7631C4C53
:100C10003434275A1B484760615A01621948A15A67
:100C2000403041606146615A01627046215A154860
:100C300080304160E15A01621248615BC03041601E
:100C4000A15B0162F8BD032CFCD1144F124C3C6136
:100C50003C620B4C3434275A0A484760615A01629F
:100C60000849A05A403148606046205A0862DCE7D3
:100C70000B4F27630B4F6763094F3037C6E7000000
:100C800078A0001000004053555500008905000071
:100C90008CCCCCCCCCCC8CCC0000F0FF40000052F3
:100CA000699999999999699910B52421663008F044
:100CB0001DFA012010BDF8B5044607460546203749
:100CC000A034787F6076387FA076012020730020E2
:100CD000206128682080686DE07600F00FFC407D80
:100CE000207500F00BFC408A208100F007FC007D9D
:100CF000607500F003FCC07F207100F0FFFB203026
:100D0000C079E07500F0FAFB807D294620764031FD
:100D10002E46087F0022D243C0366035022824D0F8
:100D2000042839D0052820D0072835D000F0E6FB6C
:100D3000007E4042608000F0E1FB4078A07200F04D
:100D4000DDFB807E20730620E07200203070E061C1
:100D50002879002806D0012804D0022802D00020DB
:100D600000F08AFD0120E072F8BD0220A0726280CE
:100D70002878A07568782081A87860750020207593
:100D80000622E272307020610120E061087F0528B0
:100D9000E8D10720A072E5E709206076387FA076C9
:100DA0000120207662800821A17220730620E07263
:100DB000002030700321E061E1750A222281617513
:100DC0002075CFE70120704770B5054604466030B6
:100DD000017042708370FF2001217D300155022196
:100DE0005C200155A0352046FFF765FF294602200B
:100DF000FFF7B0FD21460120FFF7ACFD70BD70B5D7
:100E000004460546FF300022613002775C20015520
:100E1000206CA0351E46002806D12046FFF74BFF68
:100E200029460220FFF796FD21460120FFF792FD9B
:100E30000446002E02D0002000F01EFD204670BDAA
:100E4000F8B50546A03504460E461746002B0BD0D4
:100E50000621104607F048FD002802D0002000F0CF
:100E60000BFD384607F08EFDFF2000217D30015537
:100E70005C2006552046FFF71EFF29460220FFF79B
:100E800069FD21460120FFF765FDF8BD70B55C1CCA
:100E900065086D001524A406049EA161E06101208F
:100EA000A060521E11045A1E1143E1606904891C9E
:100EB00021615904891C6161A0622060002E02D06A
:100EC00060680028FCDB70BDF0B5059D069F6C1CBA
:100ED000660876001524A406A161E0610120A060E7
:100EE000521E11046D1E2943E1607104891C2161A9
:100EF0005904891C6161A0622060002F02D06068E3
:100F00000028FCDBF0BD0121152080068162016212
:100F1000704700000849074808620948074901600E
:100F20000849416008494017086007490748803967
:100F3000086070470000C04000ED00E00140404004
:100F400000E400E04040004080E100E0E1200000DB
:100F5000F8B5417803780A02F8491A434968847859
:100F60008C4680310A82F64B4C82D11A002601252C
:100F7000F44F9A427AD009DCF349511A0FD0102964
:100F800014D0122949D013290FD1A8E001296ED01D
:100F900004296DD005296CD00629F5D116E16046EB
:100FA00040308577C577E94806601BE11021E84E9F
:100FB000042C317006D0032C0ED0022C16D0012C3C
:100FC0001ED00FE10279C178120289188AB2411D40
:100FD000104605F07AFF1CE00279C17812028918E8
:100FE0008AB2411D104605F076FF12E00279C17801
:100FF000120289188AB2411D104605F06AFF08E006
:101000000279C178120289188AB2411D104605F092
:101010005EFF0028C9DB3573E4E0CE4ACE49002CE0
:1010200008D0102C36D0CD4A401C112C3FD0122CA9
:1010300049D0D7E00E70CA4816700078002807D152
:1010400000F05CFA4021418200F058FA0421017559
:10105000C448007B0028C448B880F8800AD0C34840
:101060001E21C18028210181012004E041E046E0E9
:1010700062E0A8E0002005F094F9BD480E218171DE
:101080000A21C1719620388178817883FF20C3308E
:10109000B883A7E00D70C078002802D0012803D0E3
:1010A000A0E016700E709DE0157001201CE00D7020
:1010B000C178837809021943518041790379080284
:1010C000184310808EE00D70C178837809021943AF
:1010D000D1804179037908021843908082E0A148C9
:1010E000012C04D00673002005F05BF97AE005734B
:1010F00078E031219F4807F0F9FF9F4864E09F4F57
:10110000012C01D03E706DE000F0FAF90446FF308A
:101110003D706421133007F0E9FF2046FF300C21B9
:10112000773007F0E3FFE01DF930067446741A21AA
:10113000823007F0DBFF55E09148002C02D0012CF3
:101140002BD04FE006708748007B002817D08D48D1
:101150000078002807D100F0D1F94021418200F049
:10116000CDF9042101758048B8808749F880874807
:10117000C1609620388178813D767D7632E000F03E
:10118000BDF94021418200F0B9F90421017576488A
:101190007D49B880F8806431E9E7057000F0AEF968
:1011A0008021418200F0AAF9052101756E20B880E6
:1011B000F880322038817881192038767876734823
:1011C0007349C1600EE0734804700BE0012C09D133
:1011D00000F094F9222181706F4805706F48057006
:1011E0006F4806800120F8BD0121C903411A890317
:1011F000090E8B006B498205C958920D002907D052
:1012000081231B02C01A322804D85A490818704793
:10121000002070478818704710B5C2B2614B000AB1
:101220004400203B1B5B934202D80020088010BD85
:101230005C4C8000603C205880189A1A0A8010BDCF
:10124000F0B505220124042512078426564B0128F7
:1012500007D00027022808D0042808D0082808D181
:1012600009E036484160156001E0002903D01660AE
:101270001C700120F0BD15601F70FAE7F8B54B4EE9
:10128000746AF462E00501D5302022E0A006800FE8
:1012900020D0464D403D6868C007FCD02C480078FF
:1012A000122803D100210220FFF7CAFF234F204656
:1012B000397800F019F802202860012028600C20FD
:1012C00028623B48A8623B48286200203870FF2013
:1012D00001303062F8BD70B5184C00256C20656097
:1012E00000F084F8257070BDF8B5314E7078317813
:1012F00005022E480D434038406A82218000800C50
:101300000C1A022C0CD06FDD0F48281A202855D259
:1013100000F054FA3046FFF71BFEFFF7CFF963E009
:101320000B480078122847D001210220FFF788FFE0
:101330002146284600F07BF856E00000A404000097
:101340001408000038030000000800003005000009
:10135000FC020000700500006F050000740500002D
:10136000210500007C0300002C0100001C0300008C
:10137000600300004A0D00006E05000071050000CA
:1013800034050000290500000CFEFFFF8C0300005F
:1013900030F8FFFF350500009C0500003605000011
:1013A000380500000CA300101C050000C000005010
:1013B000C80C0000090082000021B6E701200003EC
:1013C000854211D2A8B26946FFF726FF00280BD04C
:1013D00069460988A41EA14201DD69460C80694660
:1013E0000A88B11C07F025FE0120F8BD30B5842124
:1013F0000522120711600123136100251562374988
:1014000002240C600B600C610B617F231B021843EC
:10141000D0610C20086232488862324808622F4846
:10142000E11E4030C162C562E101016230BDF8B524
:101430000446092000258001201A2B468C280AD258
:101440002948844201D12948037000F059F8001955
:10145000FF3831382CE001263603B44204D2A0B262
:101460006946FFF7D9FE23E0A120A11BC0008142FD
:1014700016D21F48B4424268506B01D00D4617E0A7
:10148000002A29D01B490978102911D000290FD032
:10149000242242804722436002700822427007E003
:1014A0000120C003201AB04216D2A0B2FFF79CFE62
:1014B000002811D041190948042240300260074B2E
:1014C00002221A6101221A6105231B079A608160BA
:1014D00009490160491E0160F8BD0000800000500C
:1014E000C80C000009008200B20200007305000071
:1014F000A4040000FC0200000900FFFFB44870478C
:10150000B3487047B349002008607047F8B5B04849
:10151000AF4A6030917803460025403B55297DD085
:10152000AD4904240D705521917003215170FF21A4
:101530001573D531118240215182042111755575E1
:1015400002219175D5750121117655769176D17666
:10155000232111775177014640310C706024548467
:10156000782494841E249C71044680343226E675C7
:101570000126DE7103261E729D72012696775D722A
:10158000403215705570954A02604260C560056131
:10159000934A45618260934A8261934AC261934A49
:1015A00002628830924A0260924A42600220142607
:1015B000487064278F700A23CB703C200871072085
:1015C000087408462030EA1E02704D718F711E208B
:1015D000C8714B20C000608002202076207032202D
:1015E000607002202071102060710220A071032021
:1015F000E071268223750520A074C01FA0754010DD
:10160000607575481121008907F074FDE07432207F
:1016100060760520A0762820E07600E01CE003201C
:10162000207765770120A0772046E57720301921C3
:1016300001704570102282701C22C2703C2202711F
:10164000467181710781F0214181E1218900818109
:1016500020218173C67303E0907F042800D15D725E
:10166000654A1F201070122064495070088D9082C6
:10167000488DD082888D108361480078012816D06B
:10168000C88D5E4B508320335B481C7C20308470B7
:101690005B7CC370088F908400200B1820331418D3
:1016A0009B7C401C23770628F7D3002006E0AA2065
:1016B000E7E7410089180D714D71401C9178814216
:1016C000F7D8F8BD10B542480021016641660921EE
:1016D00009038166434981674A4819210180418095
:1016E000FF212D318180C1809621018141816422B9
:1016F0008281C1810522027542751423424A5C42EF
:1017000093805480414A78249480042494714183C6
:10171000FF21C3318183552090823D49C820088034
:1017200048803C481E21C180282101813A48D06070
:101730003A4832214360018210BD274A0A21917044
:101740002348264901664166254981662549816706
:101750002C48192101804180FF212D318180C180D9
:101760009621018141814183FF21C3318183502131
:1017700081817821C18103210175417522480F21A2
:101780008180494241802148642181800421817106
:10179000372181821E4AC821118051801D490E22A5
:1017A000CA8014220A811C496431C16008480221A0
:1017B000A030417019490820486070470020064A4F
:1017C00001461318401CC0B219730C28F9D3704796
:1017D0004001000018030000FC020000444444449F
:1017E0004494444422F3000072011000CDCDCDCDCD
:1017F00005070A1425426B9674040000C00200100D
:101800002405000038030000F00200008C030000F3
:10181000200400001C0300000CFEFFFF6803000012
:10182000FEB5044601291BD0002000F025F825460E
:10183000A0356946687C0F7A009AB8420ED00C4EEB
:101840000021C80013583360801840687060491C3C
:101850008029F6D38034019860836F740720FEBD21
:101860000121684601720349072000910190DEE7DB
:10187000000200551CA3001070B5002400283BD1C5
:101880001E4D287801280ED0FFF757FF0124FFF7DF
:1018900035FE222181702146194804F069FF28781D
:1018A000012803D008E0FFF70DFFF4E715490120F8
:1018B000087315490020087014480078002814D0D7
:1018C000FFF71CFE80214182FFF718FE05210175FC
:1018D0000F486E218180C18032210181418119210F
:1018E000017641760C490B48C8600C496320887228
:1018F000034885216030C17070BD00002B050000D9
:10190000C41B00007C0300002A0500003405000011
:101910003803000030F8FFFF8C0300002C040000A7
:1019200070B55720000644690021C9438161A107B1
:101930000FD406F0F3FEA84DE00702D0287807F098
:1019400050F8200702D5687807F04BF806F0EBFE58
:1019500070BDFF210231016070BDF8B59F4C0128B8
:1019600010D002280ED00D462035032816D00528A9
:1019700007D1A0690C216956000C000489B2084304
:10198000A061F8BDFFF7BAFD2030C0790028F8D17A
:10199000E068000C00044F30E060F8BDFFF7AEFDDA
:1019A0002030C079002804D1A06D000C00044F3015
:1019B000A065FFF7A3FDA0304079002805D1884835
:1019C0008169090C09042B318161687A012805D1EC
:1019D0008348C0300169090C0904016120680C21A9
:1019E0006956000C000489B20843206060690D212B
:1019F0006956000C000489B208436061784CC03C11
:101A000061680A20774E2856370C0206120D3140C5
:101A10003840114300020143616021680B202856C1
:101A200031400206120D384011430002014321608B
:101A3000FFF764FDFFF762FDE030007DA16B000160
:101A400031400843A063FFF759FDE030007D644D4D
:101A500040420006040D803DA86930400443FFF772
:101A60004DFDE030007D4042384000020443AC614F
:101A7000FFF744FDFFF742FDA0305B4C8079E16841
:101A8000000131400843E060FFF738FDFFF736FD05
:101A9000A030C079216B0001314008432063FFF77B
:101AA0002DFDE030017D50484038C161F8BD70B572
:101AB0004E4D0C4601280AD002281CD0032804D021
:101AC000042810D00020FFF7D7FE012070BDFFF7DB
:101AD00015FDE8300168A9604068E860207821467B
:101AE00000F02EF8F1E7404840380169090C09047C
:101AF000491C0161E9E757213D48090608600020BB
:101B0000420051190B69121953800969801C090C94
:101B100091800A28F4D335488038C068E082D4E741
:101B200010B50021084606F06DFE2B4908705720BD
:101B300030490006C1600B2101612F49816110BD50
:101B4000F3B5044687002D480F26B602C55981B06B
:101B5000072C01D2012000E00020FFF78DFE0120BC
:101B60008002854201D8012000E00020FFF784FEBA
:101B7000029820308646007AA0421AD016480021EA
:101B8000001DC759AA081548944604E08A00BB58AE
:101B900012181360491C8C45F8D20022FF27013728
:101BA000B94204D88B001B181A60491CF8E770462C
:101BB0000472029802990078FFF7CFFE0120C00757
:101BC0003146014357200006816071194160FF21B1
:101BD00002310160FEBD0000AC040000003C00408A
:101BE000803E00400FF000FF803F0040C0000057E3
:101BF0000001010030000080FFFF000054AD001024
:101C000070B5044605460E46C43401210320FFF793
:101C10004EFF28462030017F491E2176407F6076A6
:101C20002A48E0612A4820622A4860622146284604
:101C300000F01DF832460121204600F010F8002186
:101C40004035A97770BD10B5C4300322022100F0E1
:101C500006F8040001D1FFF70FFE204610BD10B5B5
:101C60000B46027001461846FFF721FF10BD10B564
:101C70000C46036C01222034022B01D3627201E076
:101C80000021617205212173022161734030807F40
:101C9000012802D0022803D101E0227300E0627320
:101CA000FFF72CFCA03040781E2801D91E2003E04D
:101CB000FFF724FCA0304078202140B2E072081ADF
:101CC000022800DA0220A07210BD0000802F004020
:101CD0007C2900400C1800401B490120FFF7B0FA96
:101CE00002F046FE03F0DEFB02F07EFEFFF70AFC88
:101CF000164803F071FE01F0C5FD05F0A0FA144886
:101D000006F0EFF8134E144C144D3146207806F0CF
:101D1000EBFD002802D00020FFF7AEFD207806F092
:101D200031FE094800F095FF0746FFF7E7FB007B0F
:101D30000028EAD128780028E7D1002FE5D000213B
:101D40000220FFF77DFAE0E7C41B00003803000023
:101D500000BF00108096980086050000FC0200007D
:101D600010B50446090260346E4B1143E270CA1A82
:101D7000994215D008DC6C4A891813D0502914D028
:101D80006A4A891809D110E0FF3AFF3A033A11D0A4
:101D9000FF2A05D0FF3AFD3A07D00020FFF76CFD7F
:101DA000012010BD01F044FBFAE701F013F9812096
:101DB000E070F5E7FFF7A2FB818C0B20FEF7CAFD70
:101DC000EEE7F8B5064604466030FF36C0780025D9
:101DD0001536302804D00020FFF74EFD2846F8BD08
:101DE000002740362764204601F05BFB05460128AA
:101DF00008D00420305E001D01F03CFA206C401C2D
:101E00002064F0E72764FFF779FBFF30013047706B
:101E1000E4E770B5054604466035E87881280AD0C5
:101E200083280ED0842842D0852807D00020FFF7D1
:101E300023FD012070BD8322812140E08022852185
:101E40003DE0FFF75BFBE030C07F00280CD0FFF7E0
:101E500055FBE0304088616C884205D8287900281D
:101E600002D1204600F02FF8204601F03DF9FFF79F
:101E700045FBE0300178A06C814202D284228321AC
:101E80001DE000280FD0FFF739FB848C287900284B
:101E900004D1FFF733FBF72141560C1921460B20E3
:101EA000FEF758FDC5E7FFF729FB818CF7E72046D1
:101EB00001F01AF9A06C0028BBD1832284212046AE
:101EC000FFF74EFFB5E7F8B50446002501F060FCCA
:101ED00000272764552D08D3FFF710FBE03040881A
:101EE0002764C01E0126606415E0204601F079FCDD
:101EF000064601280DD0206C6D1C401C2064FFF7A5
:101F0000FDFAFF30013080794100401801F0ABF953
:101F1000E0E76764276400210720FEF71BFD3046D9
:101F2000F8BD000083810000D0EFFFFFB0DFFFFFAE
:101F300010B50246A032517B102911D006DC0029D1
:101F400003D0012901D0032906D110BD112907D0E2
:101F5000122905D0132903D00020FFF78DFC10BDF6
:101F60004900454B20395B5A1377434A921E515A18
:101F70008030C18310BDF3B5044605468034A035DA
:101F8000E18BAA7A81B051434E00A76B00F016F89E
:101F90003A480761A17CAA7AC901521E11434161E6
:101FA00061691022D1418161287F761E3104084386
:101FB00002990902084332494863FEBD70B50646DE
:101FC000A0360024707B254610281ED006DC002891
:101FD0000DD001280BD0032806D108E0112814D019
:101FE000122812D0132810D00020FFF745FC707B78
:101FF00001218A1E224E002811D0012815D0032865
:102000001AD0002C21D0012020E041001A4A2039AA
:10201000921E555E80001B4940380C58E7E7B163BB
:10202000B263801CFF28FAD970BD0020B163B16390
:10203000801CFF28FAD970BD0020B163B163B26380
:10204000B263001DFF28F8D970BD0020FFF714FC13
:1020500000206A0007E04100635EB3630B190221B0
:10206000595EB163801C8242F5D80021FF28EBD86D
:10207000B163B163801CF9E7B4AD001000020055F4
:1020800040000055CC0400003D20024900040863D4
:102090007047000040020055F8B505464035002164
:1020A0000246034604462E88703250332034864F51
:1020B000761E8E468C463E60AE89761E7E60866CAD
:1020C000761EBE60466C856C751B6D1EFD60A68914
:1020D0007D4D761E40356E61A668761EAE61A7689E
:1020E0006668F61B761EEE610788774E7F1EC03647
:1020F000376387897F1E776387687F1EB76347686A
:102100008668BF1B704E7F1EC036F7631E88761E22
:102110002E629E89761E6E629E68761EAE625E6834
:102120009B68F31A5B1EEB6213885B1E2B6393891B
:102130005B1E6B6393685B1EAB63536892689A1A6D
:10214000521EEA63A48902462504A032D37C0126EC
:1021500036041B06AD1B24022B43FF3C013C2343EA
:10216000113355252D06AB60574B147D1C61574B21
:10217000EB6004468034544B267EC03B002E01D0D9
:10218000534E01E0524E803E1E63137A012B01D95B
:1021900001239E461023E35E002B01DD072106E0AC
:1021A000002B13D05E1C15D00121DB432382927CCF
:1021B000090512060A43714609040A4345490A43C0
:1021C0002A616146FFF7D7FE0120F8BD01218C4648
:1021D0000621ECE701239C46E9E7FEB501462031E4
:1021E00006460091A036B27A0192426C054652082A
:1021F0008264024680320746044601460292D08B32
:10220000928B40348018A081F079B27970358218B1
:102210008A60A089503742008A81606843084B6019
:102220002088F279C018821A0A802988A068401A8A
:10223000A989401E491C06F05DFF019906F05AFF6E
:1022400068604008A860A068019906F053FF029AF0
:102250006168928B51432288891840180922B2562E
:10226000696851432A888918401A401E3880A0683E
:10227000019906F03FFF78602888A9684018B86087
:10228000029AD08B019A50434000B881009960684F
:102290008860218860684218A189491C484324301D
:1022A00000991018486064680019401E214606F025
:1022B00021FF717F60434018009948600099707D4C
:1022C00088810120FEBD000000010055430300602D
:1022D000F1430001C00300300A4603467047FEE7A1
:1022E000F8B5FFF70BF90546403555200006406864
:1022F000A84EC002A84FC40E01D1306B3870A74859
:102300000078012803D121460520FEF754FC285D02
:10231000397840183063A24910208863F8BD10B5A1
:10232000552000064068C002C10E0320FEF743FCA2
:102330009B491020886310BD022805D0032803D0D4
:1023400098480021886570479748FAE730B5974C60
:1023500000229300CD581B191D60521C052AF8D38A
:10236000924B0021403B8A008458D2181460491CCB
:102370000829F8D330BD10B529214906CA680C23B5
:102380009A43CA6002228A4B012807D0022805D04E
:10239000032806D00020FFF76FFA10BD5A60854869
:1023A00001E05A608448086210BD70B529214906D1
:1023B000CA680C231A43CA6003247D4A41230028BB
:1023C00008D0032803D00020FFF756FA70BD5460F0
:1023D0000B6270BD79480862754800254030056081
:1023E00013254560856054607548086272487B30EB
:1023F00008620B6273481061106270BDF1B5002075
:1024000082B0704F019005460646FF430090FFF7EB
:1024100075F80446029800216034C943030007F0B0
:1024200069FC050407090F070C000D46019707E03A
:102430000D4600E00197009702E00020FFF71CFA2C
:1024400061480078012810D05448604A00786049FB
:1024500001280DD05F480078002812D05E4800782F
:1024600000280BD015460E460CE00B26360309E07B
:102470005A4800780128F5D0002503E0584D594E00
:1024800000E0594E46480199803801600099016189
:1024900046488038056145618661552109062268F4
:1024A0000A6362684A63A2688A633D4AE368403A05
:1024B00013602369536063699360029B042B07D107
:1024C0004A4B036143618361D8430863486388636F
:1024D000A0691061E0691062206A5062FEBD70B5AB
:1024E00004460D46062801D2012000E00020FFF737
:1024F000C3F9C0353E492B68E0000A581B021B0A8D
:102500001A4329235B069A634018294940680860EA
:1025100070BDF0B5374EB36B00218A009219126876
:10252000491C9B1A0E29F8D335680246324F2921DF
:10253000324C4906A032C030BD4205D1F56B304F58
:10254000BD4201D1002B0BD0012323705C230B6310
:1025500005231B034B632B4901600720D077F0BD97
:10256000002323707368D377B368F4681B042402D4
:1025700023433469234303607369DBB20371B06999
:10258000D0730B63D07B000208304863F0BD00209D
:102590000BE70000C0010055D004000088050000D2
:1025A000C0030055E12200101F230010C000005599
:1025B00040000052E57F000045780000C07B00002D
:1025C000C07A00000000F0FF8A0500007777777777
:1025D000770777772B0500006F050000890500005D
:1025E000AAAAAAAAAA0AAAAAFF0FFFFF444444441F
:1025F000B8AD001080C30020100410202405000096
:102600001306741920202000F8B5F84C06460F4632
:10261000207806F0B7F9F64D287806F0B3F94E2089
:10262000805D002811D00323082202213046FEF7E6
:10263000CBFB0321207806F057F9002802D00020B8
:10264000FFF71AF9207806F09DF9EA481821437837
:1026500002783046FEF7B8FB6421207806F044F992
:10266000002802D00020FFF707F9207806F08AF949
:1026700004213046FFF7C4FA6421287806F034F9C3
:10268000002802D00020FFF7F7F8287806F07AF942
:102690002422D949384606F0CCFC0120F8BDFFB50C
:1026A000002683B00F463546344618E0600002909D
:1026B000385A06F0D5FF07F02BFB00900191304609
:1026C00006F0D2FF019B009A06F076FF06F0C0FDEF
:1026D00006460298385AA84200DD0546641C059853
:1026E0008442E3D3284607F0F9F806F0BDFF07F06F
:1026F0000FFB06F0ADFD04462421384606F0F6FC3B
:102700003046069907F0C0FB0399086020460699F9
:1027100007F0BAFB03998860059807F0E7F80146CF
:10272000304606F0C9FF069907F0AEFB03994860F2
:1027300007B0F0BDFFB585B000200290AF48009013
:102740001446012748000E46A04201DA012000E0AD
:102750000020FFF791F8751CA01BC01B04903EE001
:1027600000200746744201901BE030198100089850
:10277000405803902819182148430599085803998F
:1027800007F082FB0146019807F0E4FA0190384611
:1027900007F0A4F8039907F0DDFA07F03DF80746C3
:1027A000641CB442E1DD384607F098F80146019810
:1027B00006F082FF1821059A69438C180146E060F3
:1027C000009807F037FB01D2009800E0E068009025
:1027D000E16807F005FB00D1029504986D1CA84242
:1027E000BED8029809B0F0BDF3B583B000207D25B6
:1027F00000900826ED008248049906F07BFC47080B
:102800007F00744238462946484301907D487E49FE
:1028100060434018019906F077FC0499091A00D525
:102820004942A94203DA26460D4608360090641C48
:10283000082CEBDB03987942466503980160039905
:102840000098C860380203993043886531460A20F1
:10285000FEF780F8012005B0F0BDF0B50446C06871
:10286000616887B0451AA168002240187D21C9001F
:10287000029166490978039165490191032100910C
:1028800064498A5E002A0BDB01200390FEF736FEC6
:10289000018A60680D1AFEF731FE008AA1684018AF
:1028A000642D00D26425FF21F531884200D9084605
:1028B0004F4E0590307806F065F800212046FFF76E
:1028C0009FF96421307806F00FF8002802D000202C
:1028D000FEF7D2FF307806F055F800262046663025
:1028E000049021E018200199704347187F20C0050B
:1028F000069029462046FFF777FFE168029881425B
:1029000010D020460499FFF77FFE11223846069B1F
:102910000499FFF7C4FEA06D7861E0683861E06853
:10292000761C029003982D1805988542DAD33A4B0D
:10293000324600990198FFF7FDFE1821484301999E
:102940004018056980683549884204DD3449012012
:1029500008706421085529462046FFF745FF314994
:10296000019806F0C5FBFEF7C9FD45842068DFE647
:10297000F0B505462C480027007887B0012832D0F2
:102980007F232946DB05112266316846FFF787FE63
:10299000264C6869214607F077FA009907F0DAF9C2
:1029A000FE1E314606F0A6FF68612146286907F041
:1029B0006BFA029907F0CEF9314606F09BFF2861C9
:1029C00006F050FF0446FEF799FD04842E4660365B
:1029D00030792C46803400282AD001287FD0022864
:1029E00001D0002030713846A2E60000A0040000AB
:1029F000AC040000680300000034004000401C46A6
:102A0000409C0000400D0300005A620219050000BE
:102A10007C2900408C050000D40400000000C8425E
:102A20002105000004060000350500000000E0401C
:102A30005848008A06F05AFF696907F0FBF90ED280
:102A4000A07A5449401CC0B2A07289898842CAD376
:102A50006869A8610120A0730746062013E04D486D
:102A6000406806F043FF296907F0E4F9BBD2E07A39
:102A70004849401CC0B2E072C9788842B3D30220F2
:102A8000A073012704204449087001204349307194
:102A90000870FEF733FDA03064248471FEF72EFD2C
:102AA000A030C471FEF72AFD80214182FEF726FD89
:102AB000052101753A49782088803A480078002835
:102AC00091D0FEF71BFDFF2101314182FEF716FD7B
:102AD0000621017534490320487584E7FFE72D4836
:102AE000806806F003FF296907F026FA4BD22948CF
:102AF000408A06F0FBFE696907F01EFA43D2A089FE
:102B00002449401C80B2A081CA892849904202D33E
:102B1000887E002805D01A2008560028DDDD002018
:102B200035E0002030711D49A0730870A081FEF7C8
:102B3000E5FC40214182FEF7E1FC042101751C48BF
:102B4000007B002812D01B4901200870144978200E
:102B50008880144800780028BFD0FEF7CFFC802181
:102B60004182FEF7CBFC052101753CE7FEF7C6FC70
:102B7000A03064248471FEF7C1FCA0301E21C17115
:102B8000074884802FE7A0890028A6D0401EA08196
:102B900029E7000068030000190500002105000076
:102BA0008C0300002A05000038030000A814000070
:102BB0007C0300002B05000070B50446FEF7A0FC66
:102BC000C11D0022F9310A7425461022FF354A74CE
:102BD0004135698B0123022921D00146FF310222B0
:102BE00081314A801A22AA5E632A28D0652A29D018
:102BF0006D2A2AD0772A2AD04B8000214A008B00E8
:102C00001219FF321B186132FF33813395889D8082
:102C1000128A491CDA800629F0D3012070BDFF30EA
:102C2000E11D8130F93143808A8AFF34828021346A
:102C30002288C280C98A018161884181EDE7FF2233
:102C4000033200E0744A4A80D7E7744AFBE7744ACB
:102C5000F9E7F0B59DB0044600F098FD04F076FA6F
:102C6000704812210388027A1F2002F037FC02F01C
:102C7000D4FD6D486D4E817D00291AD0C07D00289D
:102C800017D06B4812231F2231790BAD0FC566494F
:102C90002C2214396846FDF7C1FC634820380EC861
:102CA0000FA802F0C4FD604838220FA92038FDF7B4
:102CB000B5FC01F042FE01F0B9FE5E4801F043FFB1
:102CC0005D4D014628705D4A5A4802F0A3F928700C
:102CD00001460122574802F0A8FB287055482C21D4
:102CE000415E406803F03BFA554856490078097840
:102CF000084301D103F022FD01F0CDF95249074606
:102D00000868401C086000210420FEF7D0FE4F48F0
:102D10004F4A03784F490025002B0BD005701078DF
:102D2000012805D0002000F037F8074665642BE045
:102D30000D70FBE748480078012802D01078012880
:102D400009D10878401CC0B20870642801D200275D
:102D500001E0642008703079404A4149002808D0D9
:102D60000878002801D0082806D930791070012091
:102D700003E015700D7001E0401C0870002F06D0B4
:102D80006564A06C401CA06438461DB0F0BD606C4A
:102D9000A564401C6064F7E7F8B50446FEF7B0FB95
:102DA0000146FF31FF300023013113301025142676
:102DB0002C4F0B74002C19D0002212E02C242A4F27
:102DC0005443E419678C0780A78C4780A4898480CA
:102DD000837142720572C6710C7C0A30641C0C74DB
:102DE000521C204CA4789442E8D810E000220BE05A
:102DF000038043808380837142720572C6710C7CAC
:102E00000A30641C0C74521CBC789442F0D8087CC4
:102E1000497C4018F8BD00000202000002030000D7
:102E200002040000F0020000F4160000A8140000E4
:102E30000C170000940D0000440500004805000038
:102E4000340500003505000018030000640500008B
:102E50007305000072050000710500001E050000EA
:102E60001F050000FC020000C414000010B5012082
:102E7000FF23532109064B6004220A624B620022A1
:102E80008A62CA620B630A62FD244C604C620224AF
:102E9000CC608C618A62CA620B638C68CB620A6305
:102EA000896810BD10B504460021FDF78BFFFEF7C1
:102EB00025FBC07E002802D02046FFF7CEFC002173
:102EC0000720FDF747FD012010BDF1B584B0D048C3
:102ED000049E00784036012806D00A27B07BCD4DED
:102EE000002817D0022413E06427F7E7287805F0BC
:102EF00049FD00232A7819460498FDF7A1FF3946B9
:102F0000287805F0F1FC002802D00020FEF7B4FC80
:102F1000641EEBD2FEF7F2FA007E6946087001905B
:102F2000FEF7ECFA007D694648700390FEF7E6FA7A
:102F3000017E727F91400176FEF7E0FA017D727F9B
:102F4000012489180175FEF7D9FA007E7843B24F43
:102F500000902EE00126287805F014FD387805F061
:102F600011FD002C00D10226287805F00BFD03236B
:102F7000082202210498FDF727FF01232A78002167
:102F80000498FDF75DFF2878009905F0ADFC002856
:102F900002D00020FEF770FC31460498FEF730FEA8
:102FA0003878009905F0A0FC002802D00020FEF738
:102FB00063FC641ECED2FEF7A1FA01990176FEF7FA
:102FC0009DFA0399017503210620FDF7C3FC01203A
:102FD00005B0F0BD70B505468D480078012820D0B9
:102FE0000A242846FDF760FE03210520FDF7B2FC08
:102FF0002846FFF757FF884E307805F0C3FC0021C4
:103000002846FEF7FDFD2146307805F06DFC0028CE
:1030100002D00020FEF730FC2846FFF756FF0120C3
:1030200070BD6424DDE7F3B5074683B0203002901D
:10303000407F019079489024057801260521384683
:10304000FEF701FE8A2D18D00ADC112D21D004DCF8
:10305000002D1ED0102D1DD10CE0122D1AD118E01C
:1030600028468B38030006F045FE070A150C0E10A3
:1030700015121500002426460CE0694C0AE0694C44
:1030800010E0694C0EE0694C0CE0694C0AE0694CB8
:1030900008E00026852D12D08C2D10D0002D0ED0EA
:1030A000102D0CD00120009002980121037FA0B2C6
:1030B00089074118B86B019A80B2FDF7E7FE062137
:1030C000386C06F017F801290AD1012E08D1FEF755
:1030D00015FA007B002803D100210220FEF7B0F88A
:1030E000049805F057FC73E7F8B5044605464848D0
:1030F00040350078012840D00A273E4603210520AC
:10310000FDF728FCA87B434D002811D0287805F056
:1031100039FC0323082202212046FDF755FE3946DB
:10312000287805F0E1FB002802D00020FEF7A4FB80
:10313000287805F027FC4048022143780278204691
:10314000FDF742FE01232A7800212046FDF778FE94
:103150003946287805F0C8FB002802D00020FEF789
:103160008BFB03210620FDF7F5FBFEF7C7F9206C6A
:10317000294F2A4D002806D102E064273E46BDE7CC
:103180002878082808D13146387805F0ADFB2B485F
:1031900001782046FFF747FF387805F0F3FB284811
:1031A000007805F0EFFB03212046FEF729FD2448B7
:1031B0003146007805F098FB002802D00020FEF789
:1031C0005BFB387805F0DEFB2978204601222030B1
:1031D0001C4D852902D08C2907D00EE00092037F78
:1031E000427FA06B184980B205E00092037FA06B7C
:1031F000012280B22946FDF749FE204624222946B5
:10320000663005F016FF206C401C20640120F8BDDC
:1032100088050000A0040000AC040000FC020000CF
:103220000C1800007C290000681C000060360000BB
:1032300020350000C420000068030000860500005F
:10324000AD040000003400409000004010B501467D
:10325000042000F017F810BD10B50146012000F061
:1032600011F8002010BD10B50146032000F00AF847
:10327000002010BD10B50146012000F003F8002029
:1032800010BD0000F3B583B00546FEF739F92924D7
:103290003B4F64060026012D0BD0022D09D0032DD3
:1032A00007D0042D63D00020FEF7E6FA012005B018
:1032B000F0BD3448049940690090334805F01AFF86
:1032C000F16B0191316C0291304921622F495031EB
:1032D00021622F490E620F22CA6229490E60A66040
:1032E0002C49F1632C493164284952312162002173
:1032F00000BF00BF00BF491C3229F9D32749216212
:10330000012767621F4B5861986107221A61032DDC
:1033100019D000990498FDF7D9F8276266620198E0
:10332000F0630298306416481D4901601848042172
:103330000162022DBAD101F030FB1A488777C777B6
:1033400019480660B2E704990098491C0BD013494C
:10335000216230BF2662512109060E6058619861D2
:103360001A61A760D9E70D4909312162F2E77D2092
:1033700000013E60A061032060610120606195E76B
:1033800000E100E000E000E050C30000A47B00008A
:10339000800000520101000005010000F67F0000DE
:1033A000E1200000041C000030050000F1B584B0ED
:1033B000FEF7A4F804466034FEF7A0F82030467A01
:1033C0000025FEF79BF82030077A2068009060689F
:1033D0000190A0680290A0690390FEF78FF8FF307B
:1033E000013041890498FFF7FFF9FEF787F8203094
:1033F0004572FEF783F820300572256065605848F5
:10340000A560A06100210720FDF7A4FA0398A06140
:103410000298A0600198606000982060FEF76EF846
:1034200020300772FEF76AF82030467205B0F0BD12
:1034300070B50446FF3405461534FDF735FC6821A8
:10344000204605F055FE4748606346482430A06397
:103450004448243820644448E063FEF74FF8FF30C6
:1034600001308179FF2059304153FEF747F8FF3092
:1034700001300021C1712846FFF798FF3B4C2078AE
:1034800005F080FA00212846FEF7BAFB03212078D8
:1034900005F02AFA002802D00020FEF7EDF90120FD
:1034A00070BDF8B5314C06460027207805F06AFA61
:1034B0002F4D287805F066FA03210520FDF74AFA1A
:1034C00000232A7804213046FDF799FC032128784F
:1034D00005F00AFA002802D00020FEF7CDF90121FC
:1034E0000620FDF737FA306C052801D23846F8BDC2
:1034F00005213046FEF784FB0321207805F0F4F91E
:10350000002802D00020FEF7B7F900210320FEF7C3
:10351000CEFA304604F09BFF05001ED0154901206D
:10352000087015490870FDF7E9FF3446FF34FF3095
:1035300041340130618BC1711A201049205E8862CC
:10354000FDF7DCFF018A3046FFF74EF93046FFF702
:1035500033FB00210220FDF773FE2846F8BD000072
:1035600022F50000003400400C180040AC040000BC
:10357000A00400007305000064050000740400004E
:10358000F8B5044605468034208A754B1022C11ACE
:10359000744F0026984279D009DC7349401864D0F2
:1035A000012854D0022874D003280DD154E00A29F0
:1035B0000BD00B2902D012297ED17BE0608A05282E
:1035C0007AD13A700120387376E068486849027809
:1035D000012A07D006700E704035A889654F002873
:1035E0000DD011E00E700670FDF788FFFF3001303E
:1035F00001214170FDF782FF162181705CE0FDF72B
:103600007DFF2030807A3870FDF778FF203001216F
:103610008172A889401C80B2A8810A2801D20020AA
:1036200011E0FDF76BFF203039788172AE810C20FC
:1036300005F0C0FB0020C043FFF70EFEFDF75EFF64
:10364000162181700120002836D10120F8BD7D208F
:103650000001FFF7FBFD2FE0608A06282CD8082028
:1036600038704549608A088026E02846FFF7FEFB4F
:103670003873FF2153200006416004220262416238
:103680008662C662016317E000E002E003F025FCF9
:1036900098E710203870284603F013FBF860FDF718
:1036A0002DFF162181700121284603F061F81020BA
:1036B000387001E0608A60832682C6E710B5044650
:1036C000FFF75EFFFDF71AFF807855280FD0FDF752
:1036D00015FF2A480178012905D00021204603F072
:1036E00047F8012010BD002101700121F6E72046B6
:1036F00000F001F8F5E7F8B504460025FDF7FEFEF9
:10370000C07E002828D02046FFF732F91C4F012840
:1037100006D0387801281FD11A48007900281BD11B
:10372000204600268030C67286728681387800284E
:103730000BD01548007801280FD0FDF7FEFF0125BA
:10374000FDF7DCFE222181703E702946204603F001
:103750000FF885206034E070F8BDFDF7B3FFF3E7A4
:1037600005080000FC020000FFF7FFFF71050000E4
:1037700073050000F00400008C0500009C050000AB
:103780002C050000A81400002B0500007047000065
:10379000FEB539480321007805F0A6F8FDF7AEFE26
:1037A0002030457A68460570FDF7A8FE2030047A7F
:1037B00068464470FDF7A2FE203000264672FDF7F1
:1037C0009DFE2030067200210720FDF7C3F8FDF7AB
:1037D00095FE20300472FDF791FE203045720120E5
:1037E000FEBDF8B5244D06460027287805F0CAF836
:1037F000224C207805F0C6F803210520FDF7AAF831
:103800000023227807213046FDF7F9FA03212078BA
:1038100005F06AF8002802D00020FEF72DF80121FB
:103820000620FDF797F8306C052801D23846F8BD20
:1038300006213046FEF7E4F90321287805F054F814
:10384000002802D00020FEF717F80D4D12260024A4
:10385000FDF754FEFF30013000210078761E06E0AF
:103860004A00AA5E824201DD012402E0491CB14205
:10387000F6D32046F8BD0000AC040000A004000010
:1038800020130040FE4923200870FE4916200870CE
:103890007047F8B5FC480026024601884032917016
:1038A000374606803546F84A680084181020205EA6
:1038B000002822DDE18E032904D2491CE186E08341
:1038C00027821BE01E22A25E811A09B2002901DABA
:1038D000494209B2642348435A431018643105F041
:1038E00013FC00B2E849E08320820A88521C0A8057
:1038F000864203DA06464D8000E0E7866D1CEDB295
:10390000052DD0D3F8BDFFB58E46E049E14A0B79CD
:10391000DF4981B009784900525A022B3DD0154643
:103920002C214843DC490023461803992220305EAD
:10393000CB5EC11A00D5191A8C460499242400279D
:10394000345FCF5FE11B00D5391B64466418111941
:103950008C464F107146C90730D050436343C0189E
:10396000C019614605F0D0FB03990880049A242110
:103970000020715E105E694360430818C019291960
:1039800005F0C2FB04990C2208800A980023B25E5D
:10399000C35ED01A05D4014604E051008AB28DB24C
:1039A000BEE7991A6431002800DA981A5843642354
:1039B0005A43801805F0A8FB0A990880002005B03A
:1039C000F0BDF0B50746B14885B040690190B348F5
:1039D000B34C0290208D1F2105F08CFBB14D4608A1
:1039E0006E80608D112105F085FB4008A880039052
:1039F0003121AA4805F07AFB30204743AA483C18F9
:103A0000A0480627E75F01783846009105F07CFB67
:103A1000287000994843381A687001202821615E97
:103A2000A24F8200D2190223D35E1A118B1A00D53D
:103A3000531AB34202DA401E287003E0401CC0B2A1
:103A40001F28EED901202A22A25E8100795E0B1187
:103A5000D11A00D5991A039B994202DA401E687068
:103A600003E0401CC0B21128EFD96A782978D31E30
:103A70005CB2CB1CD21CC81E40B25BB252B29E4696
:103A80009446002800DA0020002C00DA00247C4A4A
:103A90001278521F964501DD52B29646009A921F47
:103AA000944501DD52B29446C2B2091A0320401A6D
:103AB000C3B220E07B49E0B249780D1B0321491BCA
:103AC000DD00ED1AC9B200950FE06E4D2D7855431B
:103AD0002D186E00019D401CAD5B009EAD10771847
:103AE000029E491CF555C0B2C9B26045EDDD521CBD
:103AF0005B1CD2B2DBB27245DCDD60E7F7B56C4827
:103B000084B00078002802D0002007B0F0BD6948DA
:103B100063490278488D0190088D029001988400D5
:103B200002988000002A0BD03E2105F0E3FA0746F8
:103B30002221204605F0DEFA0646B420A0210CE042
:103B40009B2105F0D7FA07465521204605F0D2FA09
:103B50000646FF204130FF212D31009104990025B8
:103B60004D5F059900240C5F00282BDDBD421EDA55
:103B7000E91B41438811C01905B2E321284605F02D
:103B8000C3FA0006C10D4748801D405A0290281A0A
:103B900047B20621384605F0B7FA069940B28906C1
:103BA00010D51937192F0DD20299081809E002997A
:103BB000491BB94228DAC91B41438811029AC0192E
:103BC000101A05B2009800281DDD364F1837B44290
:103BD00032DA0099A01B48438011801904B2A22157
:103BE000204605F091FA0006C00D3E5A0621A01BA2
:103BF00047B2384605F088FA069940B2890675D56D
:103C00001937192F70D371E0E321284605F07CFAAB
:103C10000006C10D2348801D405A0290281A47B261
:103C20000621384605F070FA069940B28906C9D5D2
:103C30001937322FB8D9C5E70198001BB0423FDAD7
:103C40000698800601D5E41E24B20198009A011B53
:103C5000891B514389118919401A04B2A2212046B7
:103C600005F052FA0006C00D3E5A0621A01B47B2CD
:103C7000384605F049FA069940B2890636D51BE068
:103C800055050000560500001C170000A814000090
:103C90002105000020040000C41400004A0D0000AB
:103CA000940D0000F204000038110000EEAD001089
:103CB0006C050000290500007F1E182F14D915E09F
:103CC000A221204605F020FA0006C00D3E5A06212A
:103CD000A01B47B2384605F017FA069940B289068C
:103CE00004D51937322F01D8301804B20498058052
:103CF0000598048008E7FFB587B00D4614461E46B8
:103D0000119F079805F0EAFD0090284605F0E6FDB2
:103D10000190204605F0E2FD0290304605F0DEFD00
:103D20000390109805F0DAFD0490384605F0D6FDB2
:103D30000590BD4210DD1098001B05F0CFFD054633
:103D4000B81B05F0CBFD294605F0B6FC07460099E7
:103D500006F09AF801990FE00798201A05F0BEFDC9
:103D60000746701B05F0BAFD394605F0A5FC07466D
:103D7000049906F089F8059905F0ECFF06463846E7
:103D8000029906F081F8039906F002F905467800D9
:103D9000000E0FD00121384605F0ACFD044629463F
:103DA000304606F001F9214605F086FC05F034FDA9
:103DB0000BB0F0BD2046FBE770B504AC70CC002220
:103DC000002802D01E2807D00CE00020205E00282A
:103DD00000DA22801A8005E00020185E002800DA50
:103DE0001A802280002908D0102905D10020285EE1
:103DF000002800DA2A80328070BD0020305E002862
:103E000000DA32802A8070BDF0B59446FE4A002563
:103E1000FE4F54692B46FE56CA5C36187600A65FE4
:103E20005B1C564375195BB2042BF4DB4200A25EA7
:103E30000B795A4355190523FE18203E1F22B2560E
:103E400016187600CA5CA65F5B1C564375195BB2F8
:103E5000092BF1DB6046054128B2F0BDFFB50646EF
:103E600089B000200790EA481F46017830460D4689
:103E700005F040F904466843301A85B2701E0A996D
:103E80000090701C019000291FD0E04A0321515678
:103E900004238919D356DC489A194069009B76009F
:103EA000865F1B040496019FDB0B1204C35A6E4607
:103EB000B381D20B89B2825A32844900415A3F04FD
:103EC0003183F90B405AB08234E07A7A3946304671
:103ED000FFF79AFF049000987A7A80B23946FFF78C
:103EE00093FF6946888101987A7A80B23946FFF754
:103EF0008BFF69468882C6487A7A00783946301A3C
:103F000080B2FFF781FF69460883C1487A7A00785A
:103F10003946301880B2FFF777FF6946088405AA52
:103F200003A908A86E4607C606AB69B260B2049A38
:103F3000FFF742FF0B98B74EC0073ED06A461821E4
:103F4000515E2020049B105E994203DD0B468142A6
:103F500000DA0346994211D183420FD1A0008019A3
:103F60000621415E1298002C016004D0AA48007816
:103F7000401F844243D101200DB0F0BDA20097192B
:103F80000A22BA5E0092019006220220BA5E385ED2
:103F9000FFF7B1FE002801DA002003E09F498842C4
:103FA00000DB08461299002C086004D09A4800787B
:103FB000401F844201D1012007900B98800740D513
:103FC00068460C21415E1422049B825E994203DD07
:103FD0000B46914200DA1346994212D1934210D116
:103FE000A80080190421415E1398002D016004D0BF
:103FF00087480078801FA84201DC0220BCE700202F
:10400000BAE7AC00A0190827C75F01920097042205
:10401000825E305FFFF76FFE002801DA002003E0C8
:104020007F49884200DB08461399002D086004D0C0
:1040300077480078801FA84203DC0798801C00B2F4
:104040000790079898E77CB50D462C2148437549A1
:10405000704B41182720085630214843724901927D
:10406000441816460095E088883303220021FFF7A4
:10407000F5FE002805DB012803D0022801D0032823
:1040800008D1644B01960095E08888330322012112
:10409000FFF7E4FE7CBDF0B5BDB000200990012023
:1040A000039007200E90FDF72BFA04460890FF348A
:1040B0005E48133427460078643701281ED05C48D8
:1040C000007801281AD05B480078002817D000201B
:1040D00018A90873487301905748069001982C213D
:1040E0004843504904900D5AFF200230054204D045
:1040F000680606D54821A94303D03DE200203DB023
:10410000F0BD18A8007B4D490F908978884205D3EF
:1041100040210D434348049945522DE24848054249
:104120000DD04048049930AA0818418C1185818C23
:104130009185818911862030007A039058E13949B0
:104140000498062246183146203107200D91085662
:1041500030210A904843344910904018029005904D
:1041600040892B49C0B209900598825E0C9209786B
:1041700010460B91079104F0C7FFC0B20799009059
:104180000C9A4843101AC0B20790059826498278C5
:104190001098085C101AC0B284460598C17840781F
:1041A000081AC1B2680525D5F0691E4D01280BD14A
:1041B000009A002A04D0184B1B785B1F9A4201D149
:1041C000012200E00022B2701F4B1E4A1B78D21859
:1041D000127D904202D2401CF061CDE10498012290
:1041E000285A9202904320221043049AA85205466E
:1041F00001200390FF202130054245D1134800786B
:1042000000287BD1124825E0A81400004D050000CD
:1042100056050000EEAD00105505000011760000B7
:1042200084410000C4140000381100007105000032
:10423000730500001C050000B40D0000FC02000026
:104240000C0A000038030000210500006F05000083
:10425000180500000078012816D0009800280ED01C
:10426000FE4A1278921F904209DA0798012806D96F
:104270000E9A0B98801A079A401E90423EDC6046C8
:1042800005283BD2052939D23BAA3AA90198FFF764
:10429000DAFE002824DA02988089400714D50098B5
:1042A000EF4A800081180620085E0699497D084182
:1042B00030A908850798800081180420085E0699B7
:1042C000897D084130A905E0029830A9008D088554
:1042D0000298408D8885E80517D50220039014E0E8
:1042E000069830A9427D2820085E1041088506986E
:1042F000827D2C20085E1041ECE7FFE7029830A990
:10430000008D08850298408D8885B078012824D1D9
:10431000D54AD4481278F1698218107D81421CD1A7
:10432000082030AB2821305E595E431A00D50B1AA5
:1043300020329279934209DC0A2030AB2C21305E86
:10434000595E431A00D50B1A934204DDB08830A998
:104350000885F08888850020B07002984169C248BD
:1043600000784200BF48805E091A09114000081811
:1043700000B230A90886FF2800DDFF200886F0691A
:10438000012810D0708AF082F0897082B08A308360
:10439000308AB0820A463089098D081AF081718905
:1043A000908D401A308230A8008D308130A8808DE9
:1043B00070812A463BA93AA8FFF7A0FBA80617D5AB
:1043C000AA488169491C8161A9480078012803D164
:1043D0000A9840B2FFF7F5FA30A8008D708430A833
:1043E000808DB08430A8008EB0810D99039808723A
:1043F000A048049930AB0E182221715E2820185E67
:104400008C46081A24212C22715E9A5E40438A1A37
:104410005243821800202B0701D5102021E0AB0663
:1044200001D504201DE0039B012B1AD18E4B8D4832
:104430001B78C018203080794043904208DB292047
:10444000805D400704D5604630AA10859185E8E775
:104450003CA800903BAB3AAA29460198FFF753FAD3
:10446000082030AA2821515E002901DA0021118597
:10447000814913462822098D9A5E914201DC491E2A
:1044800019852C21595E1A46002901DA00219185EF
:1044900079492C22498D9A5E914201DC491E998509
:1044A00076498A78002A02D1C97900294CD000289F
:1044B0004AD073490978002901D0C10644D41A8D25
:1044C0000F990C2359431BABC9184A8030AA918D10
:1044D00018AA127B0C235A431BABD218918030AA26
:1044E0003021515E18AA127B0C235A431BABD21801
:1044F000D180002900D0099918AA127B0C235A43B5
:104500001BABD218118118AA127B0C235A4302212B
:104510001BAB0143D2189172E90501D5022100E0DD
:10452000012118AA127B0C235A431BABD218D1725B
:1045300018AA127B0C235A431BABD2180199117392
:1045400018AA117B491C1173290706D50020708415
:10455000B084B081203630720DE030A9098D7184AD
:1045600030A9898DB18430A9098EB1812036039993
:1045700031720221084370720198401CC0B2019050
:104580000C2800D2AAE53F4D2879002811D03A49DD
:1045900000200A8D1BAE08E00C21414389194B888D
:1045A000D31A5B1E401C4B80C0B218A9097B814204
:1045B000F2D86879002811D02F4900204A8D1BAE0F
:1045C00008E00C21414389198B88D31A5B1E401CDB
:1045D0008B80C0B218A9097B8142F2D8E878002804
:1045E0000FD000201BAB08E00C214143C9184A88BA
:1045F0008D884D80401C8A80C0B218A9097B8142F9
:10460000F2D8089D0026FF3501351D482E7400782C
:10461000002803D018A80021027BDEE01A480078A9
:10462000012802D002284BD06CE018A9097B002099
:104630008C4630E00C2102464A431BA951184B8896
:104640008722D200934224D88988FF22E132914206
:104650001FD32D22520191421BD817E055050000AF
:10466000EEAD001038030000210500002C0400000E
:104670006E050000C4140000940D00007C030000CF
:104680006C050000FC02000034050000704A0221A5
:104690001170401CC0B28445CCD86D480078022807
:1046A00030D1012018A908738720800010A9C8857F
:1046B0000F208001088618A9887D102108431FE07B
:1046C00018AA127B0021084694460AE00C230246F1
:1046D0005A431BABD218927AD20600D40121401C57
:1046E000C0B28445F2D8012318AA13738720800032
:1046F00010AAD0850F2080011086002910D0062036
:1047000018A988756A221FA96846FBF787FF1BA8AE
:104710000FC803F086FB4E480078022809D017E046
:1047200018A9887D1021084318A9887548490B707D
:10473000E8E7FCF7E5FE0146FF31813103220091F5
:104740004A8045484349006803F0EBFB00998880A4
:1047500018A9097B00208C4621E00C2102464A431F
:104760001BA951184A8822808A8862808A7AD306D7
:1047700001D5A68002E0394B1B68A3800B89A37189
:10478000E271CA7A2272324A1278022A0AD0097B6E
:104790006172297C0A34491C401C2974C0B28445CA
:1047A000DBD81CE06672F4E70C200B4643431BA8E1
:1047B00018184388238083886380C388A380038973
:1047C000A371837AE371C37A2372007B6072287CC1
:1047D0000A34401C491C2874C9B28A42E4D8FFF745
:1047E00058F81F4B6E7400201E49420051181022C9
:1047F0008A5E002A0ADD1A5C402422433A701022A5
:104800008A5EFF2A00DBFF227A7008E02A228A5E95
:10481000002A08DD1A5C202422433A707E706A7CEC
:10482000521C6A74BF1C401C0A8AC0B24A85052803
:10483000DAD30C484188818305480078022803D1E7
:10484000687C1021084368741020285E57E400003B
:104850003405000000BF001068050000441D000082
:10486000E8AD00101C170000FEB537480090162078
:1048700084461221354801910078364D4100344874
:104880000818408A00230290304C00985900247880
:10489000081800221146A646660005E04C00045F99
:1048A000002C00DDA2186144A942F7DB02998A427C
:1048B00016DB27497418E6887144897B56430E41FC
:1048C00000210F460AE04A00845E002C05DDB44258
:1048D00002DBA41B845200E087526144A942F2DB50
:1048E0005B1C0198DBB28342CED3FEBD30B51A4AC1
:1048F0001078002801D0401E1AE01848194C017B9E
:104900001748194B007801431048007840000029EF
:1049100010D0164D0A21695E78290BDDFF259135EF
:104920006943185E8912814200DC0146218004201F
:10493000107030BD185A208030BD00B5FFF7D6FF8B
:10494000FFF792FF00BD0000D829004021050000BC
:104950001C030000AA020000250500007C030000E3
:104960006C05000022050000380300000C17000051
:1049700000201549154B0870487001221A70144A1E
:104980001080144A1080144A10708870C870087122
:104990004871887111490870704710B5FFF7E8FF3A
:1049A0000F48002181738172C172818100F07AFD0C
:1049B00000F01AF8FCF7A6FD0A4801F00DF8FEF722
:1049C00061FF02F03CFC10BD1A0500002805000044
:1049D0007C0D0000580500006C0500006D0500000E
:1049E000441C000038030000FE48FD490160FE49F8
:1049F000C160FE490161FE494161FE49C161FE4954
:104A00008161FE49CA880285098941851F212030BC
:104A1000417411218174042141758175F849F94867
:104A200016218180F6495C3101607047F54AED48F6
:104A300006CA82604160F449F44B09784A00D218F2
:104A400092898285F24A1288C285F248F24A401859
:104A50000179E448203001750421C17400211170EE
:104A60003C2101747047F0B5EC4F002384465C1E76
:104A70003D787E7811E0E8188000C01940798842BE
:104A800009D1E81844B2A000C0190623C35E9342BE
:104A900005DAC28003E05B1CDBB29E42EBD8002C3F
:104AA00014DAB8781E2811D28000C019C280BA78F2
:104AB00060469200D2191071B8788000C019417117
:104AC0007878401C7870B878401CB870F0BD70B52C
:104AD00030256943C4683039611804890825544376
:104AE000E418CC800024E4430C8101248C818A707A
:104AF0000A700A71CB704B704B71455F5E00554375
:104B00006D00AD1940680626405F9500C44A4861B3
:104B1000AD18AE5F05467543EE179B009A18CE613F
:104B200004238D61D35E5843C2174A6208624C81E8
:104B300070BD0022B949012803D0887808704A70F6
:104B400070470A70FBE7F0B505460089A5B0C0B212
:104B5000109028462030817C00268A1CD2B20D920B
:104B60002A6800245118C91C1D916969119129698D
:104B70000C91AA498E70417C2091807C2190A9499A
:104B8000286804F0B3FA002081002A69401C5650BE
:104B90006A69C0B256500628F6D30020302141433E
:104BA00000220C31EB68401CC0B25A520C28F5D3DD
:104BB0000020ADE110996A68484340001018229027
:104BC0000C99119811910C900020014683000C9AC9
:104BD000401CC0B2D1500628F8D30D990A9848431A
:104BE0001D99491E40181B90002089E11B982E2218
:104BF000401C1B900898AA5E4100229809180020CA
:104C0000085E82427EDC089B119AD3185A78002AEB
:104C100078D1109A1E2752000F928A1A1646203E0B
:104C2000F75F8742EEDC0026965F8642EADC0226CA
:104C3000965F8642E6DC0A46203A1E26965F86424A
:104C4000E0DC02228A5E8242DCDC01269E700F9A42
:104C50001E2752181346203BDF5F8742D2DC089F95
:104C60000C9BDE550F9BC95E8142CBDC089B0C99E7
:104C7000C9184E700223D35E8342C3DC8E700C2CA5
:104C80007DD2601C2390C0B209903021E8684C436B
:104C9000041900200B90A9690A980870E96908981E
:104CA00008701B99099808700998FFF742FF284679
:104CB000089B0A9A0999FFF70AFF802E01DB0B96E1
:104CC00010E1A9690B981D9B095C1291E969095CC7
:104CD0001C91129910980D9A48431C994000490064
:104CE00040186968401812994A431C99591851187C
:104CF0000022825E0E920B9A521C12B20B920F9AF5
:104D0000831A00E0F9E01718821E801C03900093BC
:104D10009C460D984B1E0292081A0D9A01978A180C
:104D20001593139063469B1E0493491C149216918D
:104D3000BB1E0593411E63469B1C06931791BB1C2B
:104D4000511E401C521C199000201A920793189172
:104D500007461F90B80013A91E9008580178002933
:104D600010D0099881420DD01E9A684680580022C2
:104D7000825E0E98824200DD0246099800E0B8E0AB
:104D8000FFF771FE1E98694608580021415E0E9893
:104D9000814208DD1E9813A90858017809988142BC
:104DA00001D001201F907F1C7FB2082FD2DB1F98FB
:104DB00000287DD1820013A989580B78002B78D167
:104DC0006B469B5800221E939A5E2E23EB5E9A42FE
:104DD0006FDB0E9B9A426CDC099A0A70124925E03F
:104DE000480E0000940D00003811000078130000F8
:104DF0009013000028140000A8130000FC0200001B
:104E00007C2900403C05000021050000380300001B
:104E1000220500006003000018050000CC0D000012
:104E200090AE0010EE02000080AE00100A5C1299F5
:104E30000023511849B2AA698E469155FD490A5C72
:104E40001C99511849B2EA698C4691551E996269BC
:104E5000CB5E761CD118616171468A00F649002349
:104E600052180621515E1E9AE769D35E36B2594345
:104E7000A369CA17C9187A41E261A16161468A0033
:104E8000ED49002352180421515E1E9A676AD35ED1
:104E90005943236ACA17C9187A416262216261893B
:104EA0000222491C6181A2567146724503DA01E073
:104EB00018E012E0A170002161567246714500DDD4
:104EC00022700322A2566146624500DAE170012297
:104ED000A2566146624500DD6170401C40B2082860
:104EE00000DA67E70B98B04200D0E6E62398C4B238
:104EF00003E020980A90219808900898401CC0B2BE
:104F000008902199884200D270E60A98401CC0B2ED
:104F100020990A90884200D24CE6204625B0F0BD88
:104F200030B53024D3686043C0180624045F52684B
:104F30006300D55E4B00D35EAB4202DB0481C180CF
:104F400030BD0824045F002C03DB6400125F934231
:104F5000F6DD018130BDF7B584460C460298302558
:104F6000C368614630206C434143A646CA18E41822
:104F700050696569401950619069A669D569E7690A
:104F800086197D419661D561106A266A556A676AFD
:104F900086197D4116625562D089E5894019D08114
:104FA000108A258A401910825089658940195081DC
:104FB0009089A589284390810020A08102200225A4
:104FC00010566557A84200DA9570032503205557FF
:104FD0002056854200DAD07070465D5618568542DC
:104FE00000DD58540121012051562056814200DD38
:104FF000507006216046615EC0B2029AFFF790FFD2
:105000000821615E002904DB6046C0B2029AFFF706
:1050100087FFFEBDF7B588B0002005900898089D71
:10502000C46800200E46854A203509E081008918B1
:105030000B795B1E0B714B795B1E401C4B71C0B230
:1050400091788142F2D843E1002104910179302224
:10505000514309194A89417930235943091949892A
:10506000511889B28C4604214156039105214156BD
:105070000122019132E07148910008180179302332
:105080000291594309194B8941793027009179439D
:1050900009194989591889B2614508D28C460421F9
:1050A00004924156039105214156019114E0614556
:1050B00012D1039B0299614F99420DD1019B009936
:1050C000994209D10621415E04988300D81906232C
:1050D000C35E994200DAC180521CD2B2574881782F
:1050E0009142C8D804980522810054480818042128
:1050F00002904156009182560192914201D14F4A4D
:10510000DCE0089830234268084630214843001903
:105110000621415E4900575E01995943091906234A
:10512000CB5E5B00D25E974201DD944600E0BC4658
:10513000282228238A5EC35ED71A00D59F1A0397B8
:105140002A222A238A5EC35ED71A00D59F1A039AA1
:10515000BA4200DD17463A4A0697127B0492002AAB
:1051600004D0F0220392FF220F3202E09622039233
:10517000AA220A230A27CB5EC75FDB19142B0CDD9A
:105180004B694769DB1919277F01BB4205DD2D4BB0
:105190000A27DF5F039B9F421ADB4B694769DB19D4
:1051A000294FBB4204DD274B0A27DF5F97420FDB05
:1051B000069BA52B04DC234B0A27DF5F974207DB06
:1051C000224A1278964207D9002A05D0022E03D926
:1051D0000422EA74002204E00D23EB74022A02D1B7
:1051E00001221B4B1A70EA7C63465A432B7D06272B
:1051F0001A41029BDF5FBA4232DD089A4369928D01
:10520000934202DC049B002B2AD14B69934202DCBF
:10521000049A002A24D10A228A5E0A21415E50188B
:10522000297C88421CDA0B480078002818D10A48EB
:10523000007813E088AE001090AE0010CC0D000096
:105240007C0300000C170000B80B00001E050000D6
:1052500018050000270500003405000000282BD0A9
:10526000089A00990198FFF776FE0120854B05907A
:10527000997802988900C9180A8882804988C18073
:10528000761E9878F6B2401E987001990020CAB236
:105290000DE0830059180F79009B9F4200D10A71DD
:1052A0004F79009B9F4200D14A71401CC0B27549A2
:1052B0008B7883420CD9ECE7724A02989178890086
:1052C00089180B8883804988C1809078401E90702F
:1052D0006C488178002900D0B6E600273046009659
:1052E00015E030214843001901908089C00708D19A
:1052F00009E03020784300198089C0070ED07F1C58
:105300007FB20C2FF5DB0098401CC0B200900C2837
:10531000E7D35D48007800280DD03CE0302078438A
:10532000001930220199FBF779F9002001997F1CBF
:1053300088817FB2E7E7022E2DD1059800282AD177
:105340002346282140331822615E9A5E881A00D5D0
:10535000501A2A221A27A25EDF5FD11B00D5B91A84
:10536000884200DC0846FF212D31884213DA474885
:105370007D220168D20091420DDD808919280AD969
:10538000434844490068884205DD01210020089A0D
:10539000FFF7E1FD01260A99002008603FE0302177
:1053A00048430719B889C00736D07A69019202923A
:1053B000D317F969B86903F004FE6A7D03F0EEFDC6
:1053C00000B2388503900490029A796AD317386A3C
:1053D00003F0F7FDAA7D03F0E1FD01B279850498A1
:1053E000002801DA002005E00898039A008D824227
:1053F00001DB401E3885002901DA002004E008980E
:10540000408D814201DB401E78850A980168019831
:10541000814201DA0A9908600098401CC0B20090ED
:10542000B042BCD330460BB0F0BDF0B505460846DF
:1054300019490978002923D0184B4900CB180421B9
:10544000595E174B1B68994201DD002A18D00022D3
:1054500017461146302461430C46EB680C341E5B42
:10546000F60709D08E1C9E5759568E4204D1022849
:1054700002D3401EC0B21F53521C52B20C2AE8DBAA
:10548000F0BD0000CC0D0000290500000C17000045
:10549000441D0000881300002105000038030000AF
:1054A0004805000010B50020FB4905220446D20142
:1054B0004300001DCC529042FAD33821F74803F044
:1054C00017FEF648012120308174C474447581753B
:1054D000C175F3480460F348017010BD30B5EE4D5E
:1054E000CB0700D0491CC9B24843002107E04C005B
:1054F0002B5BDBB2934201D25B1C2B53491C8142D4
:10550000F5D330BDF0B5E84FE84839468D893B68A2
:10551000E74A01210024834207DDFF20D230854283
:1055200003D9DF4891770460F0BDDC4800242030C7
:10553000C4747C680A26DF4DBE5F2F78DE4D1B19D0
:10554000ED68002F11D1DD4F3F7B002F0DD1DC4FD7
:105550003F78002F09D1DB4F3F78012F05D0002B7A
:105560000CDAAC420ADA012309E0002B03DAAC4280
:1055700001DA012300E00023C37409E00023C374AF
:10558000D14B1B78002B03D0322E01DAC17405E019
:10559000C37C002B02D1037D002B11D00023837527
:1055A000447D002C08D0C47C002C07D09177BC49E6
:1055B0000B6043750375F0BD4175F0BD4375F0BDDB
:1055C000002242758175F0BDF0B58DB01F210791A5
:1055D000112108910421415E09910221415E0020C0
:1055E0000A91029003900746049006460590162003
:1055F0000B90B648002506900B986843410006982A
:1056000008180024019037E0600001990090085EBE
:105610000599884201DD059002E0B04200DA0646B5
:105620000999884207DB0299091802910499491CDB
:1056300089B2049107E00A99884204DC03990918A9
:105640007F1CBFB20391002814DD9C49A04A097B4E
:10565000127811430ED192499E4A09689E4B8A18CE
:105660009A4207D29D4A1268504303F043FD019AC3
:1056700000995052641CE4B208988442C4D36D1C53
:105680000798EDB28542B7D38748059941810681D5
:10569000039941600299016004998181C7810DB02D
:1056A000F0BDFEB51F2086461620009087480024D6
:1056B0000422015F825E082589180622825E455F0A
:1056C0000A27521989180C22825E11238E18022192
:1056D000415E0191C75F0022CD1981498446029540
:1056E000AE4208DA019D0A2D05DD0A2F03DD029C7A
:1056F0008C80012400E08A8014251826455F865F8F
:105700001C27AD191A26865FC75FF619AD1920262A
:10571000865FAF191626865F1E250196455F7619AE
:105720000296B74207DA019E0A2E04DD0A2D02DD39
:10573000029CCC8002E0CA80002C06D000246500C8
:10574000641CE4B242539C42F9D37046009D401E53
:10575000684345006046281800240426055F865FDC
:105760000A27AD190626865FC75FF619AF1902250D
:10577000455F0826865FAC46AD19AF4207DA67463B
:105780000A2F04DD0A2E02DD0D81012400E00A81CA
:105790000A250E26455F865F1227AD191026865F03
:1057A000C75FF619AD191626865FAF1914260C25AA
:1057B000865F455FB446AE19B74207DA0A2D05DDAC
:1057C00065460A2D02DD4E81012400E04A8116253E
:1057D0001A26455F865F2027AD191C26865FC75FA6
:1057E000F619AF191E261825865F455FB446AE1917
:1057F000B74206DA0A2D04DD65460A2D01DD8E81E9
:1058000002E08A81002C07D0002103E04C00491CF3
:105810000253C9B29942F9D3FEBD10B53148FFF722
:1058200040FF3048FFF7D0FEFFF76CFE10BD0FB40D
:10583000F0B585B02C481A9D01902C4802901C9C14
:10584000154803902A48184A037825484030817843
:105850000A20105E012B0BD0002D10D038220BA98E
:105860000A98FAF7DBFE05B0F0BC08BC04B0184794
:10587000104B204D1B785B00EB5E9842EEDC00295C
:10588000ECD114498B398E4202DA012110AB9977A1
:10589000E10731D0611C30E020250040D416000023
:1058A00030050000640500000C170000A086010010
:1058B000041C0000210500008C0300007C03000094
:1058C000340500003505000027050000D8290040F8
:1058D0006F050000A3FCFFFFAB0300007C05000088
:1058E0001C170000F0020000681C00400C1800406B
:1058F00029050000380300002146C9B20091E107E4
:1059000001D0611C00E02146C9B28E46462801DD67
:10591000962106E0282801DD502102E0192803DD48
:1059200028212148017206E00821515E1822D24345
:105930001D491920087200201C490246086028E011
:105940000098019950434000431803994518704648
:1059500050434100029808188446002115E0480091
:105960001E5EF710114E3668BF19104E37600E4F8D
:105970002E5A3F7ABE4206D366461F5A365ABF1B7E
:105980001F5200262E52491C89B2A142E7D3521C55
:1059900092B21B988242D3D3044C0549206803F08D
:1059A000A9FB20605AE70000F0020000300500006B
:1059B0000F0200001723FA48594201704911417043
:1059C00015218170C943C17016220271491C4171B1
:1059D00001218171C371704710B50446F249F14845
:1059E000086000200871421E4A71C86001220861E7
:1059F0000A7205228A71C8718876EC4A2188118062
:105A0000EB4A01462C234B43491CD0520C29F9DBAD
:105A1000FFF7D0FFE748046010BDF1B584B0002067
:105A2000039006200290E048042545570C2D7DDAAE
:105A3000DF4F00242C206043385A002803D0641C18
:105A400064B20C2CF6DB049930204143DA480E187E
:105A50000621715ED948009101780191009803F008
:105A600053FB019A40B200994243891AD44A49B281
:105A700012785300CF4A12689A18002804DDD14BDF
:105A80001B785B1F984205DB002D0CD10420105EB3
:105A9000400015E0002904DD019B0298181A884295
:105AA00001DC002D09D00421515E706988422AD39F
:105AB000BD490A69002A08D00AE00420105E80006F
:105AC000052103F021FB01B2EFE7BF4A12680A612A
:105AD00005228A56002A0ADA2C234C71BB4A6343FA
:105AE000FA52CA79002A06D10122CA7103E00222C1
:105AF0002C236343FA52FF239133984206D38A7EC4
:105B0000521C8A7602E0039900291BD02C214C43B9
:105B1000E1192723049A5A540122CA610A840022F7
:105B2000CA810A824A828A82CA8200E00AE00A8323
:105B3000328D0A818A80728D4A81CA8088819A4812
:105B40006D1C057105B0F0BDF0B52C21984C484393
:105B50000319D9691A46491CD9610021C943203269
:105B6000D171215A3025A9430125ED02294382250F
:105B70000F468D4E21522F4035796D1E6DB2002F8C
:105B800003D0002121523571F0BD8127BF00394279
:105B900021D091798A4B491CC9B29171854A1B78F1
:105BA0001268D218127E9142EEDB215A3A46914396
:105BB00021524A0609D50021215235711A2030564A
:105BC0000028E1DD401EB076F0BD082211432152CD
:105BD0000220F071F0BDCB07FCD004231943215201
:105BE00001209071F0BDF0B52C2104464C43704B60
:105BF00083211A5B09018A438BB06B491A530979D7
:105C0000694E491E49B206911A2171560891491EE2
:105C100049B20791194661180E4695072036002DA6
:105C200038DA0722B25630256A43634D18265219D6
:105C30005D4D5269AE5FB24222DBCA690526521C35
:105C4000CA61AE572946C979002E11DBA879824274
:105C50000CD3185B022290432122104318535C4A54
:105C600064201070002901D10120E8710BB0F0BD53
:105C70001A5B0226B243554E32431A536871F1E75C
:105C8000002018530698287108980028EEDD079820
:105C9000A876EBE74B4B50071B785B1F0493474BF1
:105CA0001F780297BF1F464B05971B7801935D0035
:105CB000404B7F1E1B680093ED1800286FDAC869FF
:105CC0000622401CC86107210990715630204143CB
:105CD000394808180A90825E03921046029903F030
